:020000040000FA
:0400000007EF00F016
:1000080048826BED14F012EF12F022EE7AF010EE47
:1000180060F00D0EDBCFE3FFE806FCE221EE0AF00C
:1000280010EE6EF0090EDBCFE3FFE806FCE2E3C05A
:1000380078F0E4C079F0E5C07AF0CF0E056E7F0E57
:10004800066E0DEC13F0CB0E056E7F0E066E0DECF2
:1000580013F0600E056E000E066E0DEC13F0E40E44
:10006800056E7F0E066E0DEC13F04C0E056E7F0EBE
:10007800066E0DEC13F0C70E056E7F0E066E0DECC6
:1000880013F03A0E056E7F0E066E0DEC13F0C70ED8
:10009800056E7F0E066E0DEC13F0280E056E7F0EB2
:1000A800066E0DEC13F0E40E056E7F0E066E0DEC79
:1000B80013F0D90E056E7F0E066E0DEC13F0330E9D
:1000C8002B6EBB0E2A6EE00EE82EFED72A2EFCD72A
:1000D8002B2EFAD7CF0E056E7F0E066E0DEC13F0A1
:1000E800CB0E056E7F0E066E0DEC13F06E0E056ED0
:1000F800000E066E0DEC13F0D90E056E7F0E066E1F
:100108000DEC13F091EC15F0330E2B6EBB0E2A6E2E
:10011800E00EE82EFED72A2EFCD72B2EFAD7000E9B
:10012800156E030E166E780E176E000E186E7B0E87
:10013800196E000E1A6E180E1B6E020E1C6EB8ECAD
:1001480011F0E0EF00F0020E0001946F02EF02F0F0
:10015800750E7C19D8A4B3EF00F0B5EF00F0B9EF35
:1001680000F0030E946F02EF02F0050E946F02EF99
:1001780002F002EF02F0040E946F02EF02F0050E97
:10018800946F02EF02F0610E7C19D8A4CEEF00F054
:10019800D0EF00F0D4EF00F0060E946F02EF02F0FB
:1001A800010E946F02EF02F002EF02F0000E946F5E
:1001B80002EF02F002EF02F000017B512A6E2B6A77
:1001C8002B50000AD8B4EBEF00F0DAEF00F02A5019
:1001D800460AD8B4C3EF00F00B0AD8B4A7EF00F072
:1001E8001E0AD8B4C7EF00F0070AD8B4ACEF00F085
:1001F800030AD8B4BFEF00F0DAEF00F002EF02F024
:10020800610E8019D8A40BEF01F00DEF01F01DEF7E
:1002180001F022C0D9FF23C0DAFF300EDF6E20EED6
:1002280001F02250D9262350DA22310EDF6E2FEF4B
:1002380002F06E0E8119D8A424EF01F026EF01F028
:1002480036EF01F022C0D9FF23C0DAFF300EDF6E8F
:1002580020EE01F02250D9262350DA22360EDF6E26
:100268002FEF02F022C0D9FF23C0DAFF300EDF6E75
:1002780020EE01F02250D9262350DA22370EDF6E05
:100288002FEF02F02FEF02F02FEF02F022C0D9FF7C
:1002980023C0DAFF300EDF6E20EE01F02250D9269F
:1002A8002350DA22320EDF6E2FEF02F0720E811920
:1002B800D8A461EF01F063EF01F073EF01F022C001
:1002C800D9FF23C0DAFF300EDF6E20EE01F0225096
:1002D800D9262350DA22330EDF6E2FEF02F022C028
:1002E800D9FF23C0DAFF300EDF6E20EE01F0225076
:1002F800D9262350DA22350EDF6E2FEF02F02FEFCA
:1003080002F0720E8119D8A48CEF01F08EEF01F083
:100318009EEF01F022C0D9FF23C0DAFF300EDF6E56
:1003280020EE01F02250D9262350DA22340EDF6E57
:100338002FEF02F022C0D9FF23C0DAFF300EDF6EA4
:1003480020EE01F02250D9262350DA22380EDF6E33
:100358002FEF02F02FEF02F022C0D9FF23C0DAFFFF
:10036800300EDF6E20EE01F02250D9262350DA221B
:10037800390EDF6E2FEF02F022C0D9FF23C0DAFF5B
:10038800310EDF6E20EE01F02250D9262350DA22FA
:10039800300EDF6E2FEF02F022C0D9FF23C0DAFF44
:1003A800310EDF6E20EE01F02250D9262350DA22DA
:1003B800310EDF6E2FEF02F022C0D9FF23C0DAFF23
:1003C800310EDF6E20EE01F02250D9262350DA22BA
:1003D800320EDF6E2FEF02F022C0D9FF23C0DAFF02
:1003E8005F0EDF6E20EE01F02250D9262350DA226C
:1003F8005F0EDF6E2FEF02F02FEF02F07F512A6EB3
:100408002B6A2B50000AD8B40CEF02F0F0EF01F081
:100418002A50410AD8B485EF01F0050AD8B4E0EFB4
:1004280001F0020AD8B44AEF01F00C0AD8B404EF7C
:1004380001F0070AD8B45AEF01F0030AD8B4D0EF94
:1004480001F0010AD8B4C0EF01F01C0AD8B4B0EF2B
:1004580001F0F0EF01F026C0D9FF27C0DAFF5F0EE8
:10046800DF6E20EE01F02650D9262750DA225F0EE3
:10047800DF6E28C0D9FF29C0DAFF5F0EDF6E20EEDD
:1004880001F02850D9262950DA225F0EDF6E20C0ED
:10049800D9FF21C0DAFF5F0EDF6E20EE01F0205099
:1004A800D9262150DA225F0EDF6E24C0D9FF25C07D
:1004B800DAFF5F0EDF6E20EE01F02450D9262550BA
:1004C800DA225F0EDF6E8651D8B46DEF02F06FEF5F
:1004D80002F07FEF02F026C0D9FF27C0DAFF86C0FE
:1004E800DFFF20EE01F02650D9262750DA2287C0F8
:1004F800DFFF7FEF02F08951D8B485EF02F087EF74
:1005080002F097EF02F028C0D9FF29C0DAFF89C0AE
:10051800DFFF20EE01F02850D9262950DA228AC0C0
:10052800DFFF97EF02F08351D8B49DEF02F09FEF01
:1005380002F0AFEF02F020C0D9FF21C0DAFF83C07C
:10054800DFFF20EE01F02050D9262150DA2284C0A6
:10055800DFFFAFEF02F09151D8B4B5EF02F0B7EF7B
:1005680002F0C7EF02F024C0D9FF25C0DAFF91C01E
:10057800DFFF20EE01F02450D9262550DA2292C060
:10058800DFFFC7EF02F01200000E3B6E000E3A6E5E
:10059800040E386E000E396E91EC15F0CF0E056E14
:1005A8007F0E066E0DEC13F0AA0E056E7F0E066E1A
:1005B8000DEC13F0D90E056E7F0E066E0DEC13F0E0
:1005C8001A0E216E5E0E206E6E0EE82EFED7202EBD
:1005D800FCD7212EFAD700D0000E156E030E166E2A
:1005E800D60E176E7F0E186E220E196E000E1A6E3A
:1005F8000F0E1B6E030E1C6EB8EC11F0000E3A6E57
:10060800030E3A640AEF03F00CEF03F010EF03F067
:1006180025EF03F025EF03F03A50010D340EF324D3
:10062800D96E000EF420DA6E000EDF6E3A2A030E41
:100638003A6421EF03F023EF03F010EF03F025EF06
:1006480003F0000E3A6EEEEF03F02BEF03F03B5091
:10065800010D220EF324D96E000EF420DA6E3A5002
:10066800010D340EF324E16E000EF420E26EDFCFAC
:10067800E7FF3B50010D220EF324D96E000EF42043
:10068800DA6EDF50D8A44BEF03F04DEF03F057EFCD
:1006980003F03B50010D220EF324D96E000EF42016
:1006A800DA6E300EDF6E3B50010D220EF324D96E48
:1006B800000EF420DA6E2F0EDF6465EF03F067EFAB
:1006C80003F08BEF03F03B50010D220EF324D96E9B
:1006D800000EF420DA6E3A0EDF6075EF03F077EF64
:1006E80003F08BEF03F03B50010D220EF324D96E7B
:1006F800000EF420DA6E3B50010DDF0EF324E16E9C
:10070800010EF420E26EDFCFE7FF8BEF03F03B2A08
:100718003A2A3B50010D220EF324D96E000EF42024
:10072800DA6E2F0EDF649BEF03F09DEF03F0B1EF5D
:1007380003F03B50010D220EF324D96E000EF42075
:10074800DA6E390EDF64ABEF03F0ADEF03F02BEF99
:1007580003F0B1EF03F0B1EF03F0010E3864B7EF27
:1007680003F0B9EF03F0C5EF03F03B50010DDF0EC6
:10077800F324D96E010EF420DA6E2E0EDF6EC5EF6B
:1007880003F03B2A000E3A6E030E3A64CEEF03F0F4
:10079800D0EF03F0D4EF03F0E9EF03F0E9EF03F053
:1007A8003A50010D340EF324D96E000EF420DA6E9F
:1007B800000EDF6E3A2A030E3A64E5EF03F0E7EF26
:1007C80003F0D4EF03F0E9EF03F0000E3A6E3806B9
:1007D800EEEF03F03850D8A4F4EF03F0F6EF03F08F
:1007E8002BEF03F0F8EF03F0000E156E030E166EF4
:1007F800D30E176E7F0E186E220E196E000E1A6E2B
:10080800110E1B6E030E1C6EB8EC11F0000E3B6E41
:10081800000E3A6E000E386E000E386E050E386403
:1008280018EF04F01AEF04F01EEF04F01DEF05F0C6
:100838001DEF05F03950010D220EF324D96E000E7C
:10084800F420DA6EDF50D8A42CEF04F02EEF04F079
:100858003AEF04F03950010D220EF324D96E000E40
:10086800F420DA6E300EDF6E3AEF04F03950206E65
:10087800216A010E2026000E2122220E2024D96E84
:10088800000E2120DA6EDF50D8A44DEF04F04FEFB0
:1008980004F059EF04F03950010D220EF324D96EFB
:1008A800000EF420DA6E300EDF6E3950010D220E84
:1008B800F324D96E000EF420DA6EDF503B6E395007
:1008C800206E216A010E2026000E2122220E2024ED
:1008D800D96E000E2120DA6EDF503A6E3950010DC4
:1008E800880EF324D96E020EF420DA6E3BC0DFFFC7
:1008F8003950206E216A010E2026000E2122880E12
:100908002024D96E020E2120DA6E3AC0DFFF050ED0
:10091800386091EF04F093EF04F0A4EF04F039503D
:10092800206E216A020E2026000E2122880E202425
:10093800D96E020E2120DA6E3A0EDF6EA4EF04F0B3
:10094800600E3B64AAEF04F0ACEF04F0B6EF04F0DD
:10095800670E3B60B2EF04F0B4EF04F0B6EF04F0BA
:10096800570E3B5E410E3B64BCEF04F0BEEF04F053
:10097800C8EF04F0470E3B60C4EF04F0C6EF04F084
:10098800C8EF04F0370E3B5E2F0E3B64CEEF04F049
:10099800D0EF04F0DAEF04F03A0E3B60D6EF04F043
:1009A800D8EF04F0DAEF04F0300E3B5E600E3A64E4
:1009B800E0EF04F0E2EF04F0ECEF04F0670E3A60C9
:1009C800E8EF04F0EAEF04F0ECEF04F0570E3A5EBB
:1009D800410E3A64F2EF04F0F4EF04F0FEEF04F095
:1009E800470E3A60FAEF04F0FCEF04F0FEEF04F073
:1009F800370E3A5E2F0E3A6404EF05F006EF05F065
:100A080010EF05F03A0E3A600CEF05F00EEF05F026
:100A180010EF05F0300E3A5E030E3926382A050E1F
:100A2800386419EF05F01BEF05F01EEF04F01DEF19
:100A380005F012001450D8B424EF05F026EF05F0A5
:100A480044EF05F0000E176E37EF05F01750010D53
:100A5800F3501224D96EF4501320DA6E000EDF6EB4
:100A6800172A37EF05F01450175CD8A03EEF05F0B1
:100A780040EF05F02AEF05F044EF05F044EF05F0EC
:100A8800050E14644AEF05F04CEF05F0AFEF06F0E1
:100A9800050E146EAFEF06F0AFEF06F0D4EF06F0D8
:100AA80010C00BF011C00CF0000E0E6E0A0E0D6E89
:100AB800E8EC14F00B50300F12C0D9FF13C0DAFF66
:100AC800DF6ED4EF06F010C004F011C005F0000E80
:100AD800076E0A0E066E27EC14F00450300F12C091
:100AE800D9FF13C0DAFFDF6E20EE01F01250D926CD
:100AF8001350DA2210C00BF011C00CF0000E0E6E6D
:100B08000A0E0D6EE8EC14F00B50300FDF6ED4EFC8
:100B180006F010C004F011C005F0000E076E640E58
:100B2800066E27EC14F00450300F12C0D9FF13C022
:100B3800DAFFDF6E20EE01F01250D9261350DA22C8
:100B4800000E076E0A0E066E10C004F011C005F004
:100B580027EC14F004C00BF005C00CF0000E0E6E6C
:100B68000A0E0D6EE8EC14F00B50300FDF6E20EE1D
:100B780002F01250D9261350DA2210C00BF011C01F
:100B88000CF0000E0E6E0A0E0D6EE8EC14F00B5011
:100B9800300FDF6ED4EF06F010C004F011C005F07E
:100BA800030E076EE80E066E27EC14F00450300FA3
:100BB80012C0D9FF13C0DAFFDF6E20EE01F0125029
:100BC800D9261350DA22000E076E640E066E10C086
:100BD80004F011C005F027EC14F004C00BF005C0B8
:100BE8000CF0000E0E6E0A0E0D6EE8EC14F00B50B1
:100BF800300FDF6E20EE02F01250D9261350DA22A1
:100C0800000E076E0A0E066E10C004F011C005F043
:100C180027EC14F004C00BF005C00CF0000E0E6EAB
:100C28000A0E0D6EE8EC14F00B50300FDF6E20EE5C
:100C380003F01250D9261350DA2210C00BF011C05D
:100C48000CF0000E0E6E0A0E0D6EE8EC14F00B5050
:100C5800300FDF6ED4EF06F010C004F011C005F0BD
:100C6800270E076E100E066E27EC14F00450300F96
:100C780012C0D9FF13C0DAFFDF6E20EE01F0125068
:100C8800D9261350DA22030E076EE80E066E10C03E
:100C980004F011C005F027EC14F004C00BF005C0F7
:100CA8000CF0000E0E6E0A0E0D6EE8EC14F00B50F0
:100CB800300FDF6E20EE02F01250D9261350DA22E0
:100CC800000E076E640E066E10C004F011C005F029
:100CD80027EC14F004C00BF005C00CF0000E0E6EEB
:100CE8000A0E0D6EE8EC14F00B50300FDF6E20EE9C
:100CF80003F01250D9261350DA22000E076E0A0E9E
:100D0800066E10C004F011C005F027EC14F004C002
:100D18000BF005C00CF0000E0E6E0A0E0D6EE8EC1E
:100D280014F00B50300FDF6E20EE04F01250D9266D
:100D38001350DA2210C00BF011C00CF0000E0E6E2A
:100D48000A0E0D6EE8EC14F00B50300FDF6ED4EF86
:100D580006F0D4EF06F01450156E166A1650000A05
:100D6800D8B4B9EF06F0D4EF06F01550000AD8B49D
:100D7800D4EF06F0010AD8B454EF05F0030AD8B44A
:100D880067EF05F0010AD8B48DEF05F0070AD8B46B
:100D9800D0EF05F0010AD8B430EF06F0D4EF06F032
:100DA800120021EE5EF010EE89F0060EDBCFE3FFB5
:100DB800E806FCE2C3C190F0C4C191F0C5C192F04D
:100DC800C6C193F02C0E0001946F21EE56F010EE80
:100DD80069F0070EDBCFE3FFE806FCE221EE1DF029
:100DE80010EE60F0080EDBCFE3FFE806FCE221EE30
:100DF8004EF010EE71F0070EDBCFE3FFE806FCE2E1
:100E080021EE46F010EE79F0070EDBCFE3FFE8069F
:100E1800FCE221EE3EF010EE81F0070EDBCFE3FF9F
:100E2800E806FCE291EC15F0CF0E056E7F0E066E1B
:100E38000DEC13F0CB0E056E7F0E066E0DEC13F065
:100E4800890E056E000E066E0DEC13F0E40E056EAD
:100E58007F0E066E0DEC13F0900E056E000E066EFA
:100E68000DEC13F0C70E056E7F0E066E0DEC13F039
:100E7800150E056E7F0E066E0DEC13F0E40E056E72
:100E88007F0E066E0DEC13F0000194514CEC16F039
:100E9800DF0E056E7F0E066E0DEC13F0D90E056E93
:100EA8007F0E066E0DEC13F0330E1C6EBB0E1B6E20
:100EB800E00EE82EFED71B2EFCD71C2EFAD707EC27
:100EC80016F00001956F9551D8B46DEF07F06FEFEC
:100ED80007F015EF08F0690E0C6E000E0D6E010E8E
:100EE8000E6E010E0F6EABEC14F091EC15F0CF0EF8
:100EF800056E7F0E066E0DEC13F0CB0E056E7F0EA1
:100F0800066E0DEC13F0600E056E000E066E0DEC0D
:100F180013F0D90E056E7F0E066E0DEC13F0330E2E
:100F28001C6EBB0E1B6EE00EE82EFED71B2EFCD7E8
:100F38001C2EFAD707EC16F00001956F9551D8B41E
:100F4800A8EF07F0AAEF07F007EF08F0710E0C6E94
:100F5800000E0D6E010E0E6E010E0F6EABEC14F04E
:100F6800BD0E056E7E0E066E0DEC13F0A20E056E1C
:100F78007E0E066E0DEC13F0010E056E7F0E066EEA
:100F88000DEC13F0EC0E056E7E0E066E0DEC13F0F4
:100F98005E0E056E7F0E066E0DEC13F0D90E056E13
:100FA8007F0E066E0DEC13F0700E056E7E0E066E4B
:100FB8000DEC13F0D50E056E7E0E066E0DEC13F0DB
:100FC800940E056E7F0E066E0DEC13F0FB0E056E8B
:100FD800000E066E0DEC13F07A0E056E7F0E066E8F
:100FE8000DEC13F0EF0E056E010E066E0DEC13F00E
:100FF800D90E056E7F0E066E0DEC13F00001F44B52
:10100800F52B21EF08F0790E0C6E000E0D6E010E17
:101018000E6E010E0F6EABEC14F021EF08F021EF0D
:1010280008F0810E0C6E000E0D6E010E0E6E010E94
:101038000F6EABEC14F021EF08F00001955125EF8D
:1010480008F01200000E216E040E21642EEF08F045
:1010580030EF08F034EF08F049EF08F049EF08F0F6
:101068002150010D1C0EF324D96E000EF420DA6E07
:10107800000EDF6E212A040E216445EF08F047EFC9
:1010880008F034EF08F049EF08F0000E216E040E66
:10109800216451EF08F053EF08F057EF08F06CEFB8
:1010A80008F06CEF08F02150010DFB0EF324D96E07
:1010B800000EF420DA6E000EDF6E212A040E216481
:1010C80068EF08F06AEF08F057EF08F06CEF08F0E7
:1010D800000E216E040E216474EF08F076EF08F01C
:1010E8007AEF08F08FEF08F08FEF08F02150010D2C
:1010F800EF0EF324D96E010EF420DA6E000EDF6EC7
:10110800212A040E21648BEF08F08DEF08F07AEFA6
:1011180008F08FEF08F0820E046E0F0E056E000EB9
:10112800066EA3EC0CF0180E136E000E146E1A0E59
:10113800156E000E166E010E2DEC16F018C010F08C
:1011480019C011F01C0E126E000E136E030E146EF1
:101158001EEC05F01EC01FF02E0E1E6E000E216E36
:10116800040E2164BAEF08F0BCEF08F0C0EF08F0F5
:10117800DDEF08F0DDEF08F02150010D1C0EF3241F
:10118800D96E000EF420DA6E2150010DFB0EF32407
:10119800E16E000EF420E26EDFCFE7FF212A040E95
:1011A8002164D9EF08F0DBEF08F0C0EF08F0DDEFBD
:1011B80008F01C0E0C6E000E0D6E040E0E6E010E65
:1011C8000F6EABEC14F01AC010F01BC011F01C0E1F
:1011D800126E000E136E030E146E1EEC05F01EC088
:1011E8001FF02E0E1E6E000E216E040E2164FFEFFE
:1011F80008F001EF09F005EF09F022EF09F022EFFE
:1012080009F02150010D1C0EF324D96E000EF420B4
:10121800DA6E2150010DEF0EF324E16E010EF42079
:10122800E26EDFCFE7FF212A040E21641EEF09F0EA
:1012380020EF09F005EF09F022EF09F01C0E0C6E03
:10124800000E0D6E040E0E6E0A0E0F6EABEC14F04F
:1012580012000B6E01EF0AF00B04D8A436EF09F068
:1012680038EF09F03BEF09F007507F0F0A6E020EC6
:101278000B18D8A442EF09F044EF09F027EF0AF061
:101288000750BF0F0A6E27EF0AF027EF0AF00B048A
:10129800D8A451EF09F053EF09F056EF09F00750C1
:1012A8007F0F0A6E020E0B18D8A45DEF09F05FEFEE
:1012B80009F062EF09F00750BF0F0A6E030E0B1812
:1012C800D8A469EF09F06BEF09F06EEF09F0075049
:1012D8008F0F0A6E040E0B18D8A475EF09F077EF7C
:1012E80009F027EF0AF00750CF0F0A6E27EF0AF030
:1012F80027EF0AF00B0E0B6084EF09F086EF09F078
:1013080089EF09F007507F0F0A6E0A0E0B648FEF02
:1013180009F091EF09F027EF0AF00750C00F0A6EA5
:1013280027EF0AF027EF0AF00B04D8A49EEF09F084
:10133800A0EF09F0A3EF09F007507F0F0A6E020E25
:101348000B18D8A4AAEF09F0ACEF09F027EF0AF0C0
:101358000750C00F0A6E27EF0AF027EF0AF00B04B8
:10136800D8A4B9EF09F0BBEF09F0BEEF09F00750B8
:101378007F0F0A6E020E0B18D8A4C5EF09F0C7EF4D
:1013880009F0CAEF09F00750BF0F0A6E030E0B18D9
:10139800D8A4D1EF09F0D3EF09F0D6EF09F0075040
:1013A800930F0A6E040E0B18D8A4DDEF09F0DFEFD7
:1013B80009F027EF0AF00750D30F0A6E27EF0AF05B
:1013C80027EF0AF00B04D8A4ECEF09F0EEEF09F0D0
:1013D800F1EF09F007507F0F0A6E020E0B18D8A420
:1013E800F8EF09F0FAEF09F027EF0AF00750C00FFD
:1013F8000A6E27EF0AF027EF0AF00101F451086E90
:10140800096A0950000AD8B40CEF0AF027EF0AF06D
:101418000850000AD8B430EF09F0010AD8B44BEFED
:1014280009F0030AD8B47EEF09F0010AD8B498EF9E
:1014380009F0070AD8B4B3EF09F0010AD8B4E6EF07
:1014480009F027EF0AF0000E046E0A5074EC10F051
:10145800120073EC16F07DEC16F0830E076E0F0E7B
:10146800086E040E096E5EEC15F067EC12F055EC90
:1014780013F0270E3D6E0D0E3C6E260EE82EFED79D
:101488003C2EFCD73D2EFAD700D09CEC13F0270E4B
:101498003D6E0D0E3C6E260EE82EFED73C2EFCD778
:1014A8003D2EFAD700D0DEEC0DF0270E3D6E0D0E66
:1014B8003C6E260EE82EFED73C2EFCD73D2EFAD7E2
:1014C80000D057EC11F0270E3D6E0D0E3C6E260E27
:1014D800E82EFED73C2EFCD73D2EFAD700D022EEC0
:1014E80069F010EEB0F0100EDBCFE3FFE806FCE287
:1014F800DF0E0001BD6FB00E0C6E000E0D6E040EF7
:101508000E6E010E0F6EABEC14F001EC0FF0000E36
:101518000001CD6F3B0ECC6FD1C0CEF0D2C0CFF062
:10152800D3C0D0F021EE83F010EEC7F0040EDBCF6D
:10153800E3FFE806FCE222EE00F010EE9BF0140E4A
:10154800DBCFE3FFE806FCE221EE65F010EEC1F028
:10155800050EDBCFE3FFE806FCE29B0E0C6E000EE7
:101568000D6E010E0E6E010E0F6EABEC14F0BDEF9A
:101578000AF026EC08F0010E24EC15F0CCC010F0AF
:10158800CDC011F0CE0E126E000E136E020E146E48
:101598001EEC05F0CE0E0C6E000E0D6E010E0E6EDA
:1015A800060E0F6EABEC14F0F4C010F0F5C011F09D
:1015B800C70E126E000E136E040E146E1EEC05F0AC
:1015C800C70E0C6E000E0D6E010E0E6E0F0E0F6E16
:1015D800ABEC14F00001CC51CD11D8A4F6EF0AF011
:1015E800F8EF0AF018EF0BF0C10E0C6E000E0D6E3E
:1015F800010E0E6E010E0F6EABEC14F0D5EC06F07A
:101608000009D8B40AEF0BF00CEF0BF011EF0BF058
:101618000001F44BF52B11EF0BF0000E0001CD6F1C
:101628003B0ECC6F18EF0BF0CC07D8A0CD07BDEF61
:101638000AF0BDEF0AF007EF00F0000E0B6E445001
:10164800D8B429EF0BF02BEF0BF030EF0BF0000EB6
:10165800E9EF0BF0E9EF0BF0000E096E070E0964D5
:1016680038EF0BF03AEF0BF03EEF0BF0E6EF0BF034
:10167800E6EF0BF0000E0A6E54EF0BF00A2A640E28
:101688000A6449EF0BF04BEF0BF04FEF0BF0010E34
:10169800446E77EF0BF000D000D000F054EF0BF061
:1016A80045C004F040C0D9FF41C0DAFFDECF05F0E5
:1016B800DDCF06F04550076E086A0550071A065038
:1016C800081A042A6BEF0BF0D89008320732042E60
:1016D80068EF0BF007A073EF0BF075EF0BF042EF1C
:1016E8000BF077EF0BF0320EE82EFED745C004F072
:1016F80040C0D9FF41C0DAFFDECF05F0DDCF06F0EC
:101708004550076E086A0550071A0650081A042A39
:1017180091EF0BF0D89008320732042E8EEF0BF0C1
:1017280007A099EF0BF09BEF0BF09FEF0BF0D88021
:101738000B36B8EF0BF00B500B240B6EB8EF0BF019
:10174800B8EF0BF00A2A640E0A64ADEF0BF0AFEFA6
:101758000BF0B3EF0BF0010E446EDBEF0BF000D093
:1017680000D000F0B8EF0BF045C004F040C0D9FF3E
:1017780041C0DAFFDECF05F0DDCF06F04550076E39
:10178800086A0550071A0650081A042ACFEF0BF00A
:10179800D89008320732042ECCEF0BF007B0D7EF01
:1017A8000BF0D9EF0BF0A6EF0BF0DBEF0BF0092AEB
:1017B800070E0964E2EF0BF0E4EF0BF03EEF0BF0DD
:1017C800E6EF0BF00B50E9EF0BF01200C7C123F066
:1017D800C8C124F0C9C125F0CAC126F021EE77F0AE
:1017E80010EE1DF0050EDBCFE3FFE806FCE291ECFE
:1017F80015F0CF0E056E7F0E066E0DEC13F0DC0EA5
:10180800056E7F0E066E0DEC13F0230E056E000EAE
:10181800066E0DEC13F01D0E056E000E066E0DEC37
:1018280013F0D90E056E7F0E066E0DEC13F01A0E2E
:101838001C6E5E0E1B6E6E0EE82EFED71B2EFCD79E
:101848001C2EFAD700D0A30E076E7F0E086E000E6E
:10185800096E030E0A6E72EC0EF0276E2728D8A4C4
:1018680038EF0CF03AEF0CF09FEF0CF0CF0E056E4E
:101878007F0E066E0DEC13F0DC0E056E7F0E066E05
:101888000DEC13F0230E056E000E066E0DEC13F032
:10189800B00E056E7F0E066E0DEC13F0E40E056EAD
:1018A8007F0E066E0DEC13F0A30E056E7F0E066E0E
:1018B8000DEC13F0C70E056E7F0E066E0DEC13F0DF
:1018C800830E056E7F0E066E0DEC13F0E40E056EAA
:1018D8007F0E066E0DEC13F0D90E056E7F0E066EA8
:1018E8000DEC13F07F0E1C6ED40E1B6E320EE82E1C
:1018F800FED71B2EFCD71C2EFAD77F0E1C6ED40EDB
:101908001B6E320EE82EFED71B2EFCD71C2EFAD7E4
:10191800330E1C6EBB0E1B6EE00EE82EFED71B2E80
:10192800FCD71C2EFAD707EC16F0276E2750A2EF2B
:101938000CF0A2EF0CF0010EA2EF0CF0120004C0A4
:101948000FF005C010F00FC0F2F010C0F3F006C0A1
:101958000CF00CC045F0120E0F240D6E000E102076
:101968000E6E0FC040F010C041F0090E0F243E6EFD
:10197800000E10203F6E45C007F0010E086E000EE5
:10198800096E072ACBEF0CF0D89008360936072ED7
:10199800C8EF0CF0081C0A6E091C0B6E0DC0D9FFAD
:1019A8000EC0DAFF0A50DE160B50DD1645C007F0F0
:1019B800010E086E000E096E072AE6EF0CF0D890AB
:1019C80008360936072EE3EF0CF0081C0A6E091CCE
:1019D8000B6E3EC0D9FF3FC0DAFF0A50DE160B502F
:1019E800DD16820E076EDE0EE82EFED7072EFCD718
:1019F80045C007F0010E086E000E096E072A08EFB1
:101A08000DF0D89008360936072E05EF0DF03EC0C8
:101A1800D9FF3FC0DAFF0850DE120950DD12320E3E
:101A2800E82EFED745C007F0010E086E000E096EBD
:101A3800072A22EF0DF0D89008360936072E1FEF37
:101A48000DF00DC0D9FF0EC0DAFF0850DE120950A4
:101A5800DD1245C007F0010E086E000E096E072A58
:101A680039EF0DF0D89008360936072E36EF0DF00D
:101A7800081C0A6E091C0B6E3EC0D9FF3FC0DAFF76
:101A88000A50DE160B50DD161200126E1250D8A442
:101A980050EF0DF052EF0DF056EF0DF0010E126EF3
:101AA80056EF0DF0020E12645CEF0DF05EEF0DF0D4
:101AB80062EF0DF0020E126E62EF0DF0FEEC0FF009
:101AC8000009D8B46AEF0DF06CEF0DF082EF0DF05D
:101AD80021EC0BF00001E96F21EC0BF00001EA6F3B
:101AE80021EC0BF00001EB6F21EC0BF00001EC6F27
:101AF80021EC0BF00001ED6F82EF0DF01204D8A479
:101B080088EF0DF08AEF0DF0A2EF0DF00001E9511A
:101B1800BCEC12F0116E11500A0DF3CFF0F0F4CFB7
:101B2800F1F00001EB51BCEC12F0116E11500A0DEE
:101B3800F3CFEEF0F4CFEFF0A2EF0DF0020E121893
:101B4800D8A4A9EF0DF0ABEF0DF0C2EF0DF0000136
:101B5800EA51E9C00EF00F6A0EC00FF00E6A0E10BF
:101B6800F06F0F50F16FEC51EBC00EF00F6A0EC022
:101B78000FF00E6A0E10EE6F0F50EF6F0001EA5172
:101B8800EB25EC25E925106E1050ED19D8B4CFEFF0
:101B98000DF0D1EF0DF0D8EF0DF0000EDDEF0DF0E8
:101BA800DDEF0DF0DDEF0DF0010EDDEF0DF0DDEFF7
:101BB8000DF0120021EE26F010EE8DF0070EDBCFAF
:101BC800E3FFE806FCE221EE6BF010EE95F0050E5F
:101BD800DBCFE3FFE806FCE221EE14F010EE84F020
:101BE800080EDBCFE3FFE806FCE221EE92F010EEF0
:101BF80075F0040EDBCFE3FFE806FCE221EE8DF082
:101C080010EE7AF0040EDBCFE3FFE806FCE221EEEB
:101C180088F010EE7FF0040EDBCFE3FFE806FCE26D
:101C280022EE15F010EE60F0140EDBCFE3FFE806AD
:101C3800FCE28D0E206E000E216E950E226E000EB7
:101C4800236E840E246E000E256E87EC0FF0600E56
:101C58000C6E000E0D6E010E0E6E010E0F6EABECCB
:101C680014F0750E0C6E000E0D6E020E0E6E010E47
:101C78000F6EABEC14F08D0E0C6E000E0D6E020E96
:101C88000E6E050E0F6EABEC14F07A0E0C6E000E95
:101C98000D6E030E0E6E010E0F6EABEC14F0950E6A
:101CA8000C6E000E0D6E030E0E6E050E0F6EABEC75
:101CB80014F07F0E0C6E000E0D6E040E0E6E010EEB
:101CC8000F6EABEC14F0840E0C6E000E0D6E040E4D
:101CD8000E6E050E0F6EABEC14F0120007C004F088
:101CE80008C005F0E0EC15F0116E09C004F00AC058
:101CF80005F0E0EC15F0106E000E136E000E126E7B
:101D0800DEEF0EF0000E146EC1EF0EF01450122428
:101D18000B6E000E13200C6E0B500924D96E0C505C
:101D28000A20DA6EDF500D6E1450010D07C00EF058
:101D380008C00FF0F3500E26F4500F220EC0F6FF25
:101D48000FC0F7FFF86A070EF76403D00800F550D4
:101D580005D0F6CFE9FFF7CFEAFFEF500D18D8B45A
:101D6800B8EF0EF0BAEF0EF0BEEF0EF0CCEF0EF0BB
:101D7800CCEF0EF0142AC1EF0EF01150145CD8A06D
:101D8800C8EF0EF0CAEF0EF08AEF0EF0CCEF0EF0AF
:101D980011501418D8A4D3EF0EF0D5EF0EF0DAEFE7
:101DA8000EF0125000EF0FF000EF0FF0124A132A56
:101DB800DEEF0EF011500B6E0C6A0B1E0C1E0B4A58
:101DC8000C2A10500D6E0E6A0B500D260C500E2268
:101DD80012500D5C0E50800A0F6E1350800A0F5877
:101DE800D8B0F9EF0EF0FBEF0EF086EF0EF0FDEF36
:101DF8000EF0FF0E00EF0FF01200E0C02CF0E1C073
:101E08002DF0E2C02EF0DDC038F0DEC039F0DFC0C2
:101E18003AF0DAC02FF0DBC030F0DCC031F0D7C0C8
:101E280032F0D8C033F0D9C034F0D4C035F0D5C0C2
:101E380036F0D6C037F02C0E206E000E216E380E0C
:101E4800226E000E236E2F0E246E000E256E320EAB
:101E5800266E000E276E350E286E000E296E09ECD0
:101E680000F0EA0E0C6E7F0E0D6E030E0E6E010E64
:101E78000F6EABEC14F0320E0C6E000E0D6E030EEE
:101E88000E6E060E0F6EABEC14F0350E0C6E000ED7
:101E98000D6E030E0E6E090E0F6EABEC14F0030EF2
:101EA8000C6E080E0D6E3A0E67EC16F02C0E0C6ECA
:101EB800000E0D6E030E0E6E0C0E0F6EABEC14F0D2
:101EC800380E0C6E000E0D6E030E0E6E0F0E0F6E9A
:101ED800ABEC14F02F0E0C6E000E0D6E030E0E6E92
:101EE800120E0F6EABEC14F0030E0C6E0E0E0D6E90
:101EF8002F0E67EC16F0030E0C6E110E0D6E2F0EE2
:101F080067EC16F01200D7C128F0D8C129F0D9C162
:101F18002AF0DAC12BF0D3C12CF0D4C12DF0D5C1F1
:101F28002EF0D6C12FF0CFC130F0D0C131F0D1C1E1
:101F380032F0D2C133F0CBC134F0CCC135F0CDC1D1
:101F480036F0CEC137F091EC15F0CF0E056E7F0E4E
:101F5800066E0DEC13F0340E056E000E066E0DECD9
:101F680013F0D90E056E7F0E066E0DEC13F0270EDA
:101F7800276E0D0E266E260EE82EFED7262EFCD7CF
:101F8800272EFAD700D0000E156E030E166E300EEF
:101F9800176E000E186E24C019F025C01AF0080E2E
:101FA8001B6E0C0E1C6EB8EC11F0000E156E030EB5
:101FB800166E280E176E000E186E20C019F021C07C
:101FC8001AF0070E1B6E0B0E1C6EB8EC11F0000E0B
:101FD800156E030E166E2C0E176E000E186E22C0AC
:101FE80019F023C01AF0050E1B6E0C0E1C6EB8EC0F
:101FF80011F01200420EE82EFED700D045C004F0C2
:1020080040C0D9FF41C0DAFFDECF05F0DDCF06F0D2
:102018004550076E086A0550071A0650081A042A20
:1020280019EF10F0D89008320732042E16EF10F08E
:102038000750010B096E45C004F040C0D9FF41C0EC
:10204800DAFFDECF05F0DDCF06F04550076E086AEF
:102058000550071A0650081A042A36EF10F0D890CF
:1020680008320732042E33EF10F007B03EEF10F0BD
:1020780040EF10F070EF10F0850EE82EFED700F05C
:1020880045C004F040C0D9FF41C0DAFFDECF05F0FB
:10209800DDCF06F04550076E086A0550071A06504E
:1020A800081A042A5BEF10F0D89008320732042E81
:1020B80058EF10F007A063EF10F065EF10F070EF25
:1020C80010F0530EE82EFED700F0010E73EF10F05B
:1020D80073EF10F070EF10F0000E73EF10F01200B5
:1020E800066E06380F0B46C0D9FF47C0DAFFDF6E11
:1020F8000450D8A482EF10F084EF10F08CEF10F0A9
:1021080046C0D9FF47C0DAFFEF0EDF168CEF10F09C
:102118000404D8A492EF10F094EF10F09AEF10F0A6
:1021280046C0D9FF47C0DAFF000EDB8846C0D9FF9A
:1021380047C0DAFF000EDB8A46C0D9FF47C0DAFF86
:10214800DF0EDF16210E056E760EE82EFED7052E61
:10215800FCD700D046C0D9FF47C0DAFF06C0DFFF72
:102168000450D8A4BAEF10F0BCEF10F0C4EF10F090
:1021780046C0D9FF47C0DAFFEF0EDF16C4EF10F0F4
:102188000404D8A4CAEF10F0CCEF10F0D2EF10F08E
:1021980046C0D9FF47C0DAFF000EDB8846C0D9FF2A
:1021A80047C0DAFF000EDB8A46C0D9FF47C0DAFF16
:1021B800DF0EDF16210E056E760EE82EFED7052EF1
:1021C800FCD700D01200496E696369616E646F00C4
:1021D800534E545054494D453F00587878787820EC
:1021E80030300053454E443D32303200302E302ED0
:1021F800302E30004875623A20203F004553503A4F
:1022080020203F005765623A4E4F6B005765623A8F
:102218004E5478005765623A205478005765623A00
:10222800204F6B0053544152543D005765623A2089
:1022380000302E302E3000446174653A005F4355FB
:10224800523F004D4F44453D003030303000424948
:102258004E3D0053444B3D004154203D004D4F44FA
:102268004500415445310041544530004F4B0D0A5B
:10227800004E6F6B00204F6B004E6F6B00204F6B52
:10228800004D433D0049503D00544350004A4150E1
:1022980000474D520042696E0053444B00415420A0
:0522A800005253540038
:1022AE00BFC18AF0C0C18BF0C1C18CF0C2C18DF02C
:1022BE00BBC18EF0BCC18FF0BDC190F0BEC191F01C
:1022CE0022EE54F010EE60F0140EDBCFE3FFE806C2
:1022DE00FCE222EE3FF010EE75F0140EDBCFE3FFC2
:1022EE00E806FCE2C8EC02F0600E0C6E000E0D6EFD
:1022FE00010E0E6E010E0F6EABEC14F08A0E0C6E0C
:10230E00000E0D6E020E0E6E010E0F6EABEC14F083
:10231E008E0E0C6E000E0D6E030E0E6E010E0F6EF7
:10232E00ABEC14F0750E0C6E000E0D6E040E0E6EF0
:10233E00010E0F6EABEC14F0DF0E0C6E010E0D6E77
:10234E00020E0E6E040E0F6EABEC14F0880E0C6EB9
:10235E00020E0D6E030E0E6E040E0F6EABEC14F02D
:10236E001200000E1D6E000E1F6E130E1F64C2EFC4
:10237E0011F0C4EF11F0C8EF11F0DDEF11F0DDEF49
:10238E0011F01F50010DF3501924D96EF4501A207C
:10239E00DA6E000EDF6E1F2A130E1F64D9EF11F0D6
:1023AE00DBEF11F0C8EF11F0DDEF11F017C007F001
:1023BE0018C008F015C009F016C00AF072EC0EF045
:1023CE001F6E1C501F261F501B261FC01EF006EF2F
:1023DE0012F01E50010DF3501524D96EF450162034
:1023EE00DA6E1D50010DF3501924E16EF4501A20CF
:1023FE00E26EDFCFE7FF1D2A1E2A06EF12F01B50FA
:10240E001E5CD8A00DEF12F00FEF12F0F0EF11F0EE
:10241E0011EF12F01200C60EF66E270EF76E000EBA
:10242E00F86E02EE00F010EE88F00900F5CFEEFF28
:10243E00E550E150FAE1CE0EF66E210EF76E000E6B
:10244E00F86E01EE00F010EEDFF00900F5CFEEFFB2
:10245E00E550E150FAE1B60EF66E2C0EF76E000E58
:10246E00F86E00EED1F010EE18F00900F5CFEEFF89
:10247E00E550E150FAE103EE00F0A00EEE6AE80638
:10248E00FDE102EE88F0120EEE6AE806FDE101EEC5
:10249E00DFF0150EEE6AE806FDE100EEE9F0170E2C
:1024AE00EE6AE806FDE100EE3EF0080EEE6AE80682
:1024BE00FDE148904892000EF86E00012DEF0AF0F3
:1024CE0021EE00F010EE28F0090EDBCFE3FFE80658
:1024DE00FCE22E0E326E22EE2AF010EE13F0140EE7
:1024EE00DBCFE3FFE806FCE2280E0C6E000E0D6E4D
:1024FE00010E0E6E010E0F6EABEC14F0000E336E6D
:10250E00090E33648DEF12F08FEF12F093EF12F08D
:10251E00B1EF12F0B1EF12F0010E0C6E33500A0F44
:10252E000D6E325067EC16F0020E126E450E116EE5
:10253E00AA0EE82EFED7112EFCD7122EFAD7332A6A
:10254E00090E3364ADEF12F0AFEF12F093EF12F00D
:10255E00B1EF12F0130E0C6E000E0D6E010E0E6E1C
:10256E00010E0F6EABEC14F01200076E000E096E2A
:10257E00010E086E000E0B6E000E0A6E000E0D6E32
:10258E00000E0C6E0D5009E1080E0C5CD8A0D2EFB7
:10259E0012F0D4EF12F0D8EF12F009EF13F009EFAA
:1025AE0013F00CC004F007500C18056E000E0D1839
:1025BE00066E042AE6EF12F0D89006320532042E8B
:1025CE00E3EF12F005A0EEEF12F0F0EF12F0F6EFDF
:1025DE0012F008500A240A6E09500B200B6E085098
:1025EE000826095009220C4A0D2A0D5009E1080E41
:1025FE000C5CD8A005EF13F007EF13F0D8EF12F034
:10260E0009EF13F00A500CEF13F01200000E096ED2
:10261E0030EF13F00950010D05C007F006C008F0A9
:10262E00F3500726F450082207C0F6FF08C0F7FF44
:10263E00F86A070EF76403D00800F55005D0F6CF00
:10264E00E9FFF7CFEAFFEF504CEC16F0092A30EF16
:10265E0013F00950010D05C007F006C008F0F35045
:10266E000726F450082207C0F6FF08C0F7FFF86AE5
:10267E00070EF76403D00800F55005D0F6CFE9FF3A
:10268E00F7CFEAFFEF500009D8A450EF13F052EF46
:10269E0013F011EF13F054EF13F0120021EE36F099
:1026AE0010EE21F0070EDBCFE3FFE806FCE2B7C128
:1026BE0029F0B8C12AF0B9C12BF0BAC12CF0B3C1C0
:1026CE002DF0B4C12EF0B5C12FF0B6C130F0210EF1
:1026DE000C6E000E0D6E010E0E6E010E0F6EABEC3B
:1026EE0014F0B9EC15F0316E3150D8B481EF13F00F
:1026FE0083EF13F08FEF13F0290E0C6E000E0D6E9C
:10270E00010E0E6E050E0F6EABEC14F09BEF13F078
:10271E002D0E0C6E000E0D6E010E0E6E050E0F6E52
:10272E00ABEC14F09BEF13F0120021EE2EF010EE36
:10273E0028F0070EDBCFE3FFE806FCE2AFC130F076
:10274E00B0C131F0B1C132F0B2C133F0ABC134F02F
:10275E00ACC135F0ADC136F0AEC137F0280E0C6EFF
:10276E00000E0D6E010E0E6E010E0F6EABEC14F020
:10277E00EAEC0BF0386E3850D8B4C8EF13F0CAEF4D
:10278E0013F0D6EF13F0300E0C6E000E0D6E010E20
:10279E000E6E050E0F6EABEC14F0E2EF13F0340E6E
:1027AE000C6E000E0D6E010E0E6E050E0F6EABEC66
:1027BE0014F0E2EF13F012005765623A2020202049
:1027CE00202020202020202020202020005665724E
:1027DE0073616F204669726D776172653A202020B1
:1027EE0020002020202020202020202020202020FB
:1027FE0020202020202000202020202020202020EB
:10280E00202020202020202020202000436C6965DD
:10281E006E74653A2049502065204D41432020209A
:10282E000030302E30254820202030302E30DF2052
:10283E004300534E54504346473D312C2D332C000C
:10284E00000E096E000E086E06500710D8B432EF57
:10285E0014F034EF14F066EF14F0010E0A6E3EEF32
:10286E0014F0D890063607360A2A3EEF14F007AE5B
:10287E0043EF14F045EF14F038EF14F049EF14F075
:10288E0049EF14F0D890083609360650045C07500C
:10289E000558D8A055EF14F057EF14F05EEF14F072
:1028AE000650045E0750055A08805EEF14F0D8906B
:1028BE00073206320A2E49EF14F066EF14F008C004
:1028CE0004F009C005F012000600D9CF01F0DACFEE
:1028DE0002F0D8CF03F0F29E9EAA78EF14F07AEFB2
:1028EE0014F0A2EF14F0000E4224D96E030E432012
:1028FE00DA6EAECFDFFF424A432AABA289EF14F065
:10290E008BEF14F090EF14F0AB9800F0AB8890EFD3
:10291E0014F0A00E42184310D8A498EF14F09AEFBA
:10292E0014F0A2EF14F0000E436E000E426EA2EFF2
:10293E0014F0A2EF14F0F28E03C0D8FF02C0DAFF3B
:10294E0001C0D9FF489211000FC010F0CDEF14F066
:10295E0010C007F00E502DEC09F0010E046E0CC0E5
:10296E00F6FF0DC0F7FFF86A070EF76403D00800F4
:10297E00F55005D0F6CFE9FFF7CFEAFFEF5074EC34
:10298E0010F00C4A0D2A102ACDEF14F00CC0F6FFF1
:10299E000DC0F7FFF86A070EF76403D00800F55074
:1029AE0005D0F6CFE9FFF7CFEAFFEF500009D8A424
:1029BE00E3EF14F0E5EF14F0AFEF14F0E7EF14F0DF
:1029CE0012000D500E10D8B4EFEF14F0F1EF14F01A
:1029DE001FEF15F0010E0F6EFBEF14F0D8900D36B1
:1029EE000E360F2AFBEF14F00EAE00EF15F002EFCD
:1029FE0015F0F5EF14F006EF15F006EF15F00D508B
:102A0E000B5C0E500C58D8A00FEF15F011EF15F00F
:102A1E0017EF15F00D500B5E0E500C5A17EF15F008
:102A2E00D8900E320D320F2E06EF15F01FEF15F067
:102A3E000BC00BF00CC00CF01200116E000E126EDB
:102A4E0052EF15F00D0E106EAF0E0F6EB60EE82E85
:102A5E00FED70F2EFCD7102EFAD700D0010E0C6E1B
:102A6E00140E0D6E7E0E67EC16F00D0E106EAF0E80
:102A7E000F6EB60EE82EFED70F2EFCD7102EFAD7FD
:102A8E0000D0010E0C6E140E0D6E7F0E67EC16F05C
:102A9E00122A52EF15F01150125CD8A059EF15F012
:102AAE005BEF15F029EF15F05DEF15F0120009C080
:102ABE00F4F107C00CF008C00DF0120E0C240A6ED3
:102ACE00000E0D200B6E090E0C24466E000E0D200E
:102ADE00476E0AC0D9FF0BC0DAFFC00EDF6E46C0CC
:102AEE00D9FF47C0DAFF000EDF6E000E046E020E35
:102AFE0074EC10F0000E046E280E74EC10F0000E44
:102B0E00046E0C0E74EC10F0000E046E010E74ECDC
:102B1E0010F01200000E046E9F0E046499EF15F073
:102B2E009BEF15F09FEF15F0B4EF15F0B4EF15F025
:102B3E000450010D000EF324D96E030EF420DA6E4C
:102B4E00000EDF6E042A9F0E0464B0EF15F0B2EF94
:102B5E0015F09FEF15F0B4EF15F0000E436E000E5A
:102B6E00426E1200E6C01DF0E7C01EF0E8C01FF076
:102B7E0091EC15F01D0E056E000E066E0DEC13F0A9
:102B8E00D90E056E7F0E066E0DEC13F0270E1C6E21
:102B9E000D0E1B6E260EE82EFED71B2EFCD71C2EFE
:102BAE00FAD700D007EC16F0206E2050DFEF15F0AC
:102BBE001200000E066EE9EF15F0062A044A052AE9
:102BCE00E9EF15F004C0F6FF05C0F7FFF86A070E2F
:102BDE00F76403D00800F55005D0F6CFE9FFF7CF24
:102BEE00EAFFEF500009D8A4FFEF15F001EF16F041
:102BFE00E4EF15F003EF16F0065006EF16F0120094
:102C0E0021EEA6F010EE15F0040EDBCFE3FFE80682
:102C1E00FCE2150E076E000E086E000E096E030E16
:102C2E000A6E72EC0EF01A6E1A28D8B421EF16F056
:102C3E0023EF16F027EF16F0010E1A6E29EF16F09D
:102C4E00000E1A6E1A502CEF16F01200176E175057
:102C5E0049EC0DF00009D8B437EF16F039EF16F045
:102C6E004BEF16F013C0D9FF14C0DAFFF0C0DEFF31
:102C7E00F1C0DDFF15C0D9FF16C0DAFFEEC0DEFFD2
:102C8E00EFC0DDFF4BEF16F01200046E04C0ADFF77
:102C9E0051EF16F0ACA256EF16F058EF16F051EFBA
:102CAE0016F05AEF16F012003030005F5F005F5FD3
:102CBE00005F5F005F5F005F5F00453A00415400B8
:102CCE000E6E0DC007F00C502DEC09F0010E046EC7
:102CDE000E5074EC10F01200AC840A0EAF6EAC986D
:102CEE00AB8E948C948EAB88AC8A1200F28EF28CE2
:042CFE009D8A120099
:107DE80000363839553053304B4D30515543494B97
:107DF80055003139322E3136382E302E31303000A0
:107E08002F656E76696142442E70687000696F74E0
:107E180053454E414931323700818181814081404B
:107E28001F150A696F7455736572426400313437DF
:107E38003638333400696F74696E3100696F74695C
:107E48006E3000746162696F74005F4445463D009E
:107E5800696F7449640055415254005359530033B3
:107E6800333300383000C080436F6E74656E742DF4
:107E7800547970653A206170706C69636174696FD8
:107E88006E2F782D7777772D666F726D2D75726CE2
:107E9800656E636F6465640D0A00486F73743A20F9
:107EA8006170692E7468696E67737065616B2E63A3
:107EB8006F6D0D0A00504F5354202F757064617414
:107EC8006520485454502F312E310D0A00436F6EEF
:107ED80074656E742D4C656E6774683A2032330D84
:107EE8000A0D0A00582D5448494E47535045414BF6
:107EF8004150494B45593A2000436F6E6E65637493
:107F0800696F6E3A20636C6F73650D0A0061706962
:107F18002E7468696E67737065616B2E636F6D0090
:107F2800322E62722E706F6F6C2E6E74702E6F729E
:107F38006700312E62722E706F6F6C2E6E74702E09
:107F48006F726700302E62722E706F6F6C2E6E74B7
:107F5800702E6F726700503550434E36375A354E83
:107F6800424E4334443100303132333435363738B9
:107F78003900266669656C64323D00313233343528
:107F8800363738005345525645523D006669656C90
:107F980064313D004553505F574600496F545F4177
:107FA80050004349465352005F4355523D004D55DA
:107FB800583D004C4150005141500053415000225F
:107FC8002C22004349500041542B00432C00502CD4
:107FD800000D0A004357003830002C0022003300FF
:107FE80035004E54503A20202020202020202020E8
:087FF8002020202020200000C1
:020000040020DA
:08000000FFFFFFFFFFFFFFFF00
:020000040030CA
:0E000000040C191EFF0080FF0FC00FE00F4020
:00000001FF
